:020000040800F2
:100000003006002001010008512F0008492F000888
:100010004D2F000875070008B132000800000000ED
:100020000000000000000000000000005D2F00083C
:100030004509000800000000552F0008612F000846
:100040001B0100081B0100081B0100081B01000820
:100050001B010008592F00081B0100086109000856
:10006000690900081B0100081B0100083909000884
:100070001B0100081B0100081B0100081B010008F0
:100080001B0100081B0100083D0600081B010008B9
:100090001B0100081B0100081B0100081B010008D0
:1000A0001B0100081B0100081B010008692F000844
:1000B0001B010008752F0008812F00081B01000894
:1000C0001B0100081B0100081B0100081B010008A0
:1000D0001B0100081B010008513000081B0100082B
:1000E000490900081B0100081B010008DFF80CD0BB
:1000F00000F072FA004800478D33000830060020F7
:100100000648804706480047FEE7FEE7FEE7FEE7B1
:10011000FEE7FEE7FEE7FEE7FEE7FEE7652F0008E5
:10012000ED000008F0B480EA0102D40F4200B2EB07
:10013000410F02D20246084611464A0042D0C30D82
:10014000DDB2C1F3C752AD1A202D35DAC1F3160165
:1001500041F4000204B15242C5F1200602FA06F150
:100160002A411044B3EBD05F23D0C4B1012DA0EBE2
:10017000C35009DCF0BC4FF0004202EAC352DBB2CC
:1001800000F5000000F09DB9400000F1807000EB28
:10019000C350A0F1807040EAD170490009E04908DD
:1001A00041EAC071A0EBC35000F50000400800EB2D
:1001B000C350F0BC00F07CB96142012202EB410166
:1001C000001BF6E7F0BC704781F00041AAE780F021
:1001D0000040A7E780EA010210B502F000434000AA
:1001E00022D04A001FD0010E01EB1261C0F356006D
:1001F000C2F3560240F4000042F40002A0FB0220C9
:1002000000047F39140400D0401C50EA124001D48D
:100210004000491EC2B20C0604EBD010401C40083E
:10022000802A02D003E0002010BD20F00100002948
:1002300000DA0020184310BD30B480EA010202F059
:10024000004530F0004221F0004013D090B1C30DC2
:10025000D40DC2F31601C0F31600E41A41F40001F4
:1002600040F400027D34914201D3641C00E0490057
:10027000002C02DA30BC002070474FF4000000234D
:10028000914201D3891A034340084FEA4101F7D153
:1002900051B1914202D14FF0004105E002D24FF03E
:1002A000010101E06FF0010103EBC450284430BCB0
:1002B00000F0FEB82DE9F04D81EA030404F0004B94
:1002C00021F0004514464FF0000A23F0004150EAA7
:1002D000050220D054EA01021DD0C5F30A57024698
:1002E000C5F31303C1F31300C1F30A5640F480159C
:1002F00043F48013A7EB0608101BD64608F2FD381E
:1003000073EB050002D308F1010801E092185B418C
:10031000B8F1000F03DA00200146BDE8F08D00209F
:100320004FF48011064684460EE0171B73EB050759
:1003300005D3121B63EB050306434CEA010C490885
:100340004FEA300092185B4150EA0107EDD152EAC2
:10035000030012D082EA040083EA0501084305D0B5
:10036000101BAB4106D20122002306E000224FF011
:10037000004302E06FF0010253101AEB06004CEB51
:10038000085110EB0A0041EB0B01BDE8F04D00F005
:10039000C6B8002801DBC0F10040002901DBC1F133
:1003A0000041814201D30120704700207047C10FF6
:1003B00080EAE0700844CA079623002100F081B863
:1003C00096230022114600F07CB80EB540F233416E
:1003D00002910021CDE900110A460B4600F0AEF86B
:1003E00003B000BD00F0004220F00040C10DC0F39A
:1003F000160040F400007F2901DA0020704796299A
:1004000003DCC1F19601C84001E096398840002A1A
:10041000F4D04042704701F0004330B421F0004175
:1004200050EA010206D00A0DA2F56072C1F3130171
:10043000002A02DC30BC00207047440F44EAC104AB
:10044000C100E01830BC00EBC25000F031B82DE91B
:10045000F05F0546002092469B4688460646814648
:1004600040241BE0284641464746224600F0D5F886
:1004700053465A46C01A914110D311461846224697
:1004800000F0BCF82D1A67EB01084F462246012008
:10049000002100F0B3F817EB00094E41201EA4F133
:1004A0000104DFDC484631462A464346BDE8F09F5A
:1004B0000029A8BF7047401C490008BF20F0010078
:1004C000704710B4B0FA80FC00FA0CF050EA010456
:1004D00004BF10BC704749B1CCF1200421FA04F4E8
:1004E00011FA0CF118BF012121430843A3EB0C01C1
:1004F000CB1D4FEA00614FEA102042BF002010BC24
:10050000704700EBC35010440029A4BF10BC7047D3
:10051000401C490008BF20F0010010BC704710B516
:10052000141E73F1000408DA401C41F10001921816
:100530005B411A4301D120F0010010BD2DE9F04DBF
:1005400092469B4611B1B1FA81F202E0B0FA80F214
:100550002032904600F052F804460F4640EA0A0066
:1005600041EA0B0153465A46084313D0114653EA59
:10057000010019D0C8F14002504600F04EF805467F
:100580000E4650465946424600F038F8084305D01A
:10059000012004E020463946BDE8F08D00200543E7
:1005A00046EAE0762C4337430A986305E40AA0EB59
:1005B00008000022FD0A44EA47540A3002D5002010
:1005C0000146E9E7010510196941DDE9084500190F
:1005D0006941BDE8F04DA2E7064C074D06E0E06832
:1005E00040F0010394E8070098471034AC42F6D37A
:1005F000FFF780FDEC3B00080C3C0008202A04DBE0
:10060000203A00FA02F1002070479140C2F1200325
:1006100020FA03F3194390407047202A04DB203A64
:1006200021FA02F00021704721FA02F3D040C2F112
:1006300020029140084319467047000040F29C0098
:10064000C2F2000000F064BA0146406A826A12F009
:10065000500F03D0006A026B084610470168826A97
:1006600042F400728262896801F46021B1F5602F62
:1006700001D1017B11B100F045BA00BF816A21F4BC
:1006800080718162816AC90448BF00F03BBA816A07
:1006900041F00101816200F035BA0000406A816AD0
:1006A00041F040018162C16A41F00401C16200F081
:1006B0002DBA0000406A00F027BA0000B0B582B041
:1006C00004460020019021688A68D2074FD18868CB
:1006D00040F00100886040F22400C2F2000000688F
:1006E0004DF68361C4F21B31A0FB0101880C01901F
:1006F0000198A0B1019801380190019878B1019852
:1007000001380190019850B1019801380190019889
:1007100028B101980138019001980028EAD100F031
:1007200061FF21688968C9071CD1054603E000BF45
:100730008068C0071AD100F055FF411B20680329CB
:10074000F6D38168C907F3D1A06A40F01000A06217
:10075000E06A40F00100E062002084F824000120FB
:1007600002B0B0BD002002B0B0BD00BF002002B09A
:10077000B0BD0000FEE700002DE9F04F81B040F66B
:10078000004440F2280640F254194FF00008C4F229
:100790000104C2F20006C2F200094FF0010A00276C
:1007A00004E000BF0137082FAB4643D000F01AFF2A
:1007B000306500BF00F016FF70652046202100F074
:1007C00005FF20B9D6E9140102308842F2D8D9F8E1
:1007D0000000C0F8248000BF416A272908D8416A78
:1007E000272905D8416A272902D8416A2829F3D345
:1007F0002046202100F0EAFEC7F107010AFA01F1C4
:100800004BEA0105002808BF2BEA010500F0EAFECB
:10081000306500BF00F0E6FE70652046202100F044
:10082000D5FE0028BED0D6E9140102308842F1D8A6
:10083000B8E700BFE8B201B0BDE8F08F70B584B092
:10084000202040F6004400900120C4F201040190F1
:1008500002200390002569462046029500F0A8FD7D
:1008600020462021002200F0B7FE142000F038FDC1
:1008700020462021012200F0AFFE40F25416C2F2C1
:1008800000063068456200BF416A1D2908D8416AE8
:100890001D2905D8416A1D2902D8416A1E29F3D3B2
:1008A00001200025029069462046019500F080FD58
:1008B00030684562416A272908D8416A272905D846
:1008C000416A272902D8416A2829F3D320462021EA
:1008D00000F07CFE4FF00005B0B93068456200BF03
:1008E000416A4F2908D8416A4F2905D8416A4F29E2
:1008F00002D8416A5029F3D32046202100F066FE39
:100900000546002818BF012500F06CFE40F22806BD
:10091000C2F20006306500BF00F064FE706520463C
:10092000202100F053FE20B1D6E9140102308842A4
:10093000F2D8284604B070BD40F21010C2F2000098
:1009400000F076BB7047000080B54FF4806000F087
:1009500023FD4FF40060BDE8804000F01DBD0000A5
:10096000022000F019BD0000042000F015BD0000B9
:10097000704700007047000010B581B0002200925F
:1009800090F82420012A03D10221084601B010BDAD
:100990004B680122062B80F8242017D8D0F800C01D
:1009A00003EB83035A1F1F23DCF834E003FA02F43D
:1009B0000B682EEA040403FA02F22243CCF8342036
:1009C000092B03EB430219D936E000BFD0F800C071
:1009D0000C2B03EB83021DD8233A1F23DCF830E0F5
:1009E00003FA02F40B682EEA040403FA02F222432B
:1009F000CCF83020092B03EB43021DD8DCF8103073
:100A0000072489689440A34391401943CCF81010FF
:100A1000002130E0413A1F23DCF82CE003FA02F415
:100A20000B682EEA040403FA02F22243CCF82C20CD
:100A3000092B03EB4302E1D9DCF80CE01E3A072452
:100A4000896894402EEA0404914023F00102214376
:100A5000102ACCF80C100DD142F20841C4F2010169
:100A6000A1F1080294450DD0816A41F02001816214
:100A7000012100E00021002280F82420084601B076
:100A800010BD00BF0A68120230D40A68102B42F46D
:100A900000020A602CD140F22401C2F20001096870
:100AA0004DF68362C4F21B32A1FB0212910C01EBE2
:100AB0008101490000910099E1B10099013900914B
:100AC0000099C9B10099013900910099B1B100991B
:100AD00001390091009999B100990139009100996B
:100AE00000294FF00001E8D1C5E700BF0021C2E7AF
:100AF0000021C0E70021BEE70021BCE70021BAE7E2
:100B00000021B8E770470000704700007047000000
:100B100010B5044600684168890644BF01685FEA71
:100B200081710BD44168090644BF01685FEA4171D5
:100B30002AD4416849065BD410BD00BFA16AC9062A
:100B400003D4A16A41F40071A162816801F46021BB
:100B5000B1F5602F10D1217B71B9416821F02001DE
:100B60004160A06A20F48070A062A06AC00403D42F
:100B7000A06A40F00100A0622046FFF7C3FF206892
:100B80006FF012010160CDE7A16AC90603D4A16A22
:100B900041F40051A162816801F4E041B1F5E04FF8
:100BA00010D1416821F080014160A06A20F480509A
:100BB000A062A06AC00511D4A06A40F00100A06242
:100BC0000CE000BF4168490508D4816801F4602148
:100BD000B1F5602F02D1217B0029E2D02046FFF73A
:100BE000C9FE20686FF00C01016041684906A3D579
:100BF0000068C00708BF10BDA06A40F48030A06242
:100C0000204600F0B3F820686FF00101016010BDCC
:100C1000B0B5002800F0A8800446806A20B12168A1
:100C20008868C0070BD114E00020E06284F824003B
:100C3000204600F09DF821688868C00709D08868C0
:100C400020F00100886000F0CDFC21688A68D2079E
:100C500026D1A06AC0063AD4A06A41F2021290439B
:100C60000230A062E069D4E9013240EA030C531E6D
:100C7000B3FA83F35D091346B2F5807F18BF2B02E8
:100C8000207D257B01284CEA450030D135B3A56A8B
:100C900045F02005A562E56A45F00105E56226E01C
:100CA000054602E08868C007D3D000F09BFC401BDB
:100CB00021680328F6D38868C007F3D0A06A40F003
:100CC0001000A062E06A40F00100E062A06AA06A41
:100CD00040F01000A0620120B0BD00BFD4F818C0E1
:100CE0004EF60005CFF6FF7505EB4C352B434D68EE
:100CF000B2F5807F25F4694543EA05034B608B68B4
:100D00004FF2FD75CFF6E17503EA050343EA0003F0
:100D10008B6001D0012A07D122690023CFF6F0733E
:100D200003EB025201E000BF0022CB6A23F4700300
:100D30001A43CA62896840F6FE62CFF61F721140FC
:100D4000814207D10020E062A16A012262F3010121
:100D5000A162B0BDA06A40F0100020F00200A062C5
:100D6000E06A40F00100E0620120B0BD7047000081
:100D700070B586B0044640F60000C4F20100216858
:100D800000F5E052002691420596049602D006B086
:100D900070BD00BF41F21801C4F202010A6842F4BA
:100DA00000720A600A6802F400720192019A0A68ED
:100DB00042F004020A60096801F0040101910199FE
:100DC000F02102910321039102A900F0F1FA40F20F
:100DD00010150820C2F20005C4F202004FF4807220
:100DE000C5E9000605F1100080214FF480634FF043
:100DF000200C4FF4805E80E80C502846C5E9026163
:100E000000F0E4F9002818BFFFF7B2FD122000211E
:100E1000002225626C6200F06FFC122000F058FC8A
:100E200006B070BD70B515460446006842F6000273
:100E3000C4F2010290420E4605D042F20041C4F2D3
:100E40000101884209D142F20440C4F20100006865
:100E500010F4702F1CBF012070BD94F824000128ED
:100E600004BF022070BD012084F824002046FFF753
:100E700025FC18B1002184F8241070BD42F2044012
:100E80002168A26AC4F2010040F601739A4300F59A
:100E90007F7302F580729942A26243D0A06A20F467
:100EA0008010A0624868400504D5A06A012262F360
:100EB0000D30A062A26A0020D2044FF0000244BFAD
:100EC000E26A22F00602E26284F82400206A40F21C
:100ED0004962C0F6000240F2B56340F29D6C00F139
:100EE000280EC0F60003C0F6000C8EE80C106FF060
:100EF00002020A608A682B4642F480728A604C3192
:100F0000324600F09FF92068816801F46022816810
:100F1000B2F5602F0CBF41F4A00141F48011816053
:100F2000002070BD026812F4702FB7D0A26A42F49C
:100F30008012A26200684005BCD5B6E7014690F871
:100F40002100022816D10868D1E90FC3026822F0F7
:100F50000E020260026822F001020260012000FA23
:100F600003F2CCF8042081F821000020002281F84F
:100F700020207047042088630120002281F820206F
:100F80007047000080B590F82110022924D1026832
:100F9000116821F00E0111602F211368C4F20201C3
:100FA0008A4240F20401C4F2020123F001031360FB
:100FB00016DD3023C4F202039A421DD04423C4F24A
:100FC00002039A421CD05823C4F202039A421DD154
:100FD0004FF4803322E000BF04218163012080BDF3
:100FE0000823C4F202039A420ED01C23C4F2020367
:100FF0009A420BD1102311E04FF480730EE000BF32
:101000004FF480530AE000BF012307E001F1680CB0
:101010004FF08073624508BF4FF480130B60416B43
:101020004FF48072028401B18847002080BD000027
:1010300010B5D0E90FCE0168DCF800300A6823FA59
:101040000EF35C072AD512F0040427D00A68920632
:1010500003D40A6822F004020A602F22C4F20202BA
:10106000914240F20402C4F2020259DD3023C4F27C
:101070000203994270D04423C4F20203994271D012
:101080005823C4F20203994278D14FF480231360AD
:10109000C16A002940F097806EE000BF9C0727D509
:1010A00012F0020424D00A68920606D40A6822F0DC
:1010B0000A020A60012280F821202F22C4F20202D3
:1010C000914240F20402C4F2020239DD3023C4F23C
:1010D000020399425ED04423C4F2020399425DD0D8
:1010E0005823C4F2020399425ED14FF4003363E007
:1010F0001B0741D512F0080208BF10BD0A6822F094
:101100000E020A60012101FA0EF2CCF8042081637C
:10111000016B4FF480720029028454D12CE000BF8F
:101120000823C4F20203994222D01C23C4F2020312
:10113000994223D140231360C16A002943D11BE0A7
:101140000823C4F2020399422CD01C23C4F20203E8
:10115000994229D120232FE04FF480631360C16AA4
:1011600089BB09E04FF480431360C16A59BB03E0B7
:1011700004231360C16A31BB10BD00BF02F16804D3
:101180004FF08063A14208BF4FF480031360C16A2F
:10119000C9B9F1E74FF400730EE000BF4FF40053FC
:1011A0000AE000BF022307E002F168044FF0007379
:1011B000A14208BF4FF400131360816A0022002986
:1011C00080F82020D8D0BDE810400847002804BF90
:1011D000012070472DE9F04101684FF6F872CBF617
:1011E000FD724CF6CD430A44CCF6CC43A2FB03235C
:1011F0006FF0030707EA93030027C4F2020700F128
:10120000040E00F11008C0E90F739EE8045098E83E
:1012100070010B6843F6F077BB431A4342EA0C02B5
:1012200042EA0E0222432A43324342EA08020A609B
:1012300000214FF4807281630284BDE8F0410846CA
:1012400070470000F0B590F820C0BCF1010F32D01B
:1012500090F821C04FF0010EBCF1010F80F820E0A2
:1012600026D14FF0020C80F821C04FF0000CC0F8DE
:1012700038C0D0E900C4C56AC66BDCF80070102C19
:1012800027F00107CCF80070006C0EFA00F07060D7
:101290000846CCF8043004BF10460A46CCF80800D3
:1012A000CCF80C20DCF8000045B140F00E000DE059
:1012B000002180F820100220F0BD00BF20F00400C3
:1012C000CCF80000DCF8000040F00A00CCF8000088
:1012D000DCF8000040F00100CCF800000020F0BD78
:1012E000B0B5044600F07EF9054640F21C00C2F29B
:1012F00000000078611C18BF044400BF00F072F9C0
:10130000401BA042FAD3B0BD80B5042816D00228F5
:1013100018BF80BD40F60040C4F201004FF4806168
:1013200000F054F940F22801C2F20001B1F8602047
:10133000F0B1501CA1F86000643127E040F6004095
:10134000C4F201004FF4006100F040F940F22801BE
:10135000C2F20001B1F86220A0B1013A4FF6FF706D
:10136000A1F8622066310A881044088080BD00BF61
:10137000013A4FF6FF70A1F8602064310A881044EA
:10138000088080BD501CA1F86200663101200A88E7
:101390001044088080BD000040F21441C4F20101F5
:1013A0000A68024214BF08607047FFF7ADBF000033
:1013B0002DE9F04F82B00E68002E00F0038140F25C
:1013C0000C4C41F200424FF6FF7EC4F2010CC4F215
:1013D0000102042700240123C1F2100E4FF0000A7D
:1013E0004FF00009904208BF0327009745E000BF77
:1013F000012704F00C030F229A402BEA020207FA9D
:1014000003F34FEA9A051A4346F82520D1F804B0B1
:1014100040F20045C4F201055FEACB322A6854BFAE
:1014200022EA080242EA08022A606A685FEA8B330D
:1014300054BF22EA080242EA08026A605FEACB234C
:10144000AA6854BF22EA080242EA08025FEA8B2334
:10145000AA60DCF800204FF0010354BF22EA080222
:1014600042EA0802CCF800200E680AF1010A36FAB6
:101470000AF204F1040400F0A58003FA0AF816EA5F
:10148000080FF1D04E68764512DC122E56D8DFE8F0
:1014900006F0350B45495555555555555555555536
:1014A0005555554D510000BFD1F80C9046E000BF96
:1014B0004FF6FF72C1F2210296420FDC0022C1F208
:1014C000110296421AD00022C1F21202964215D0A1
:1014D0000022C1F22102964210D02FE00022C1F278
:1014E000220296420AD00022C1F23102964205D071
:1014F0000022C1F23202964220D100BF8A684AB16E
:10150000012A14BFC0F81480C0F810804FF00809F9
:1015100014E000BF4FF0040910E000BFCA6802F1F8
:1015200008090BE04FF0000908E000BFCA6802F1AB
:10153000040903E0CA6802F10C0900BF224606460E
:10154000BAF1080F24BF203A043637680F259540BA
:1015500027EA050509FA02F22A433260CA79D2065F
:101560007FF582AF41F21803C4F202031A6842F019
:1015700001021A601A6802F001020192019A40F217
:101580000042C4F20102A2F57E762AF0030256F868
:1015900002B040F60002C4F20102904210D040F6C0
:1015A0000042C4F2010290423FF422AF41F2000235
:1015B000C4F20102009F904208BF022719E700BF52
:1015C000002716E702B0BDE8F08F000080680840F1
:1015D00018BF012070470000002A08BF09040161FC
:1015E0007047000040F22C20C2F2000000687047F3
:1015F00040F21C0040F22C21C2F20000C2F20001B5
:1016000000780A68104408607047000080B542F214
:101610000000C4F20200016841F0100101600320E3
:1016200000F096F8002000F005F800F027F8002000
:1016300080BD000070B540F21C06C2F2000640F208
:1016400024013278C2F200014FF47A730968B3FBC7
:10165000F2F20446B1FBF2F1084600F0F1FB0F2C68
:101660004FF0010508D838B94FF0FF30214600226D
:10167000002500F041F87460284670BD80B582B046
:1016800041F21800C4F202000168002241F0010199
:101690000160016801F0010101910199416841F087
:1016A000805141604068002100F080500090009817
:1016B000052000F021F8052000F00AF80420C4F20B
:1016C00001000168022262F31A61016002B080BD6C
:1016D000002848BF7047C1B200F01F00012202FA83
:1016E00000F04EF20012CEF2000242EAD10121F0E7
:1016F000030108607047000010B54EF60C5CCEF296
:10170000000CDCF80030C3F3022E8EF00704042C2A
:1017100028BF0424BEF103034FF0FF3E0EFA04F489
:1017200038BF0023A14399400EFA03F39A431143B3
:1017300000F00F0200F160430901043A03F564432D
:101740006244002848BF02F10C03197010BD00006C
:101750004EF60C51CEF200010A684FF6FF031A4014
:1017600060F30A2242F0806040F0FD70086070472C
:101770002DE9F04182B00446007841F21C06C00712
:10178000C4F202064AD0306810F0805808D13068A0
:1017900040F080503060306800F080500190019837
:1017A00047F20007C4F200073868C00512D4386851
:1017B00040F480703860FFF715FF05463868C005B3
:1017C00008D4FFF70FFF401B6428F7D9032002B0AD
:1017D000BDE8F081706810F4407012D0616801F4C7
:1017E000407188420DD0706840F24042C4F24222FB
:1017F000012320F4407113600023C007136071605F
:101800002AD17068616820F440700843B8F1000F75
:10181000706003D1306820F080503060206881070C
:1018200007D556F8181CA26821F44041114346F828
:10183000181CC00604D4002002B0BDE8F08100BF2F
:1018400056F8180CE16820F48000084346F8180C9C
:10185000002002B0BDE8F081FFF7C4FE054641F26A
:10186000883700BF70688007CBD4FFF7BBFE401BF2
:10187000B8424FF00300F5D9EBE700002DE9F04343
:1018800081B0002800F0858042F20008C4F202080E
:101890000446D8F800000D4600F0070088420CD23C
:1018A000D8F8000020F007002843C8F80000D8F856
:1018B000000000F00700A8426BD1206841F2040943
:1018C0008107C4F2020917D5410705D5D9F80010E0
:1018D00041F4E061C9F80010010705D5D9F80010FE
:1018E00041F46051C9F80010D9F80010A26821F045
:1018F000F0011143C9F80010C00741D1D8F8000029
:1019000000F00700A8420CD9D8F8000020F007002A
:101910002843C8F80000D8F8000000F00700A842EB
:1019200037D12068410707D5D9F80010E26821F4C3
:10193000E0611143C9F80010000708D5D9F800008C
:10194000216920F4605040EAC100C9F80000D9F8CC
:10195000002002F00C00082841F20020C0F27A00BA
:1019600050D143F6C233C2F38341C0F60003595C41
:10197000D2033BD440F60010C0F23D00484341E0A2
:10198000606802280AD001282AD159F8041C89036A
:1019900008D4012001B0BDE8F08300BF59F8041C51
:1019A0008901F6D5D9F8001021F003010843C9F8E0
:1019B0000000FFF717FE064641F28837D9F800000D
:1019C000616800F00C00B0EB810F97D0FFF70AFEC2
:1019D000801BB842F2D9032001B0BDE8F08300BFFC
:1019E00059F8041C8907D4D5DCE700BFD9F80020DA
:1019F00043F6A833C2F34042C0F600039A5C484362
:101A0000B0FBF2F0D9F8001043F6AA32C1F303118B
:101A1000C0F60002515C40F2240220FA01F140F2CB
:101A20002000C2F200000068C2F200021160FFF75D
:101A300001FE002001B0BDE8F083000040F2240068
:101A400041F20401C2F20000C4F202010068096818
:101A500043F6BA32C1F30221C0F60002515CC8401D
:101A60007047000040F2240041F20401C2F200007D
:101A7000C4F202010068096843F6BA32C1F3C22118
:101A8000C0F60002515CC840704700002DE9F041EB
:101A900082B0002868D00446007841F20006C007F2
:101AA000C4F2020625D0706800F00C0004281BD098
:101AB000706800F00C00082802D17068C00313D4CD
:101AC0006068002800F06881B0F5A02F00F07C81EC
:101AD000B0F5803F00F07C81306820F480303060C9
:101AE000306820F4802076E13068800301D560689A
:101AF000D0B32078800718D5706810F00C0F07D08D
:101B0000706800F00C0008286ED17068C0036BD4B8
:101B10003068800702D52069012825D130686169C5
:101B200020F0F80040EAC1003060207800071FD4A0
:101B30002078400732D4E56995B1706800F00C0058
:101B4000082840F08F80012D0ED07068216A00F4C3
:101B500080328A4208D1616A00F47010884203D151
:101B6000002002B0BDE8F081012002B0BDE8F081A4
:101B7000A069002862D00020C4F242200121C0F8F0
:101B80008014FFF72FFD0546706A800700F18C80F6
:101B9000FFF728FD401B0228F6D92AE1F06910F072
:101BA000805808D1F06940F08050F061F06900F091
:101BB00080500090009847F20007C4F20007386890
:101BC000C00529D4386840F480703860FFF70AFDFA
:101BD000054600BF3868C0051ED4FFF703FD401B53
:101BE0006428F7D905E100BF2069002840F2000011
:101BF000C4F2422000F0828001210160FFF7F2FC74
:101C0000054600BF306880073FF588AFFFF7EAFC64
:101C1000401B0228F6D9ECE0E068002800F0808044
:101C2000052800F09780012800F09880306A20F0A5
:101C300001003062306A20F0040092E00020C4F21B
:101C400042200021C0F88014FFF7CCFC054600BFFD
:101C5000706A80077FF56CAFFFF7C4FC401B022859
:101C6000F6D9C6E00027C4F2422700203866FFF705
:101C7000B9FC022D05460BD13068800140F1BE80D1
:101C8000FFF7B0FC401B02284FF00300F4D968E7CF
:101C9000306880017FF564AFFFF7A4FC401B022889
:101CA0004FF00300F4D95CE740F22400C2F20000D8
:101CB000006844F6D351C1F26201A0FB0101480A59
:101CC000019000BF00BF0198411E002801913FF420
:101CD0002FAF00BF0198411E002801913FF428AFAB
:101CE00000BF0198411E002801913FF421AF00BFC1
:101CF0000198411E00280191E4D119E700210160FB
:101D0000FFF770FC054600BF306880077FF50DAF18
:101D1000FFF768FC401B02284FF00300F4D920E7CE
:101D2000306A20F001003062306A20F00400306236
:101D3000FFF758FC054641F2883700BF306A80073C
:101D400020D5FFF74FFC401BB8424FF00300F5D9F8
:101D500007E700BF306A40F004003062306A40F0AC
:101D600001003062FFF73EFC054641F2883700BFB4
:101D7000306A800706D4FFF735FC401BB842F7D91C
:101D800037E000BFB8F1000F7FF4D5AEF06920F066
:101D90008050F061CFE600BF306820F480303060C2
:101DA000306820F480203060FFF71CFC054600BF3F
:101DB000306880037FF59DAEFFF714FC401B64285C
:101DC0004FF00300F4D9CCE6306840F48020306056
:101DD000306840F480303060FFF704FC054600BFF7
:101DE000306880033FF585AEFFF7FCFB401B64289D
:101DF000F6D9032002B0BDE8F08100BF206AB0F53B
:101E0000803F05D17168A26821F4003111437160EF
:101E10007168626A21F474111143084370600120F3
:101E20003866FFF7DFFB0446306880013FF598AE67
:101E3000FFF7D8FB001B02284FF00300F4D990E60F
:101E4000411E0020B0EB116F1CBF012070474EF205
:101E50001002CEF2000251604EF62351CEF2000184
:101E6000F0230B70072190601160704770470000ED
:101E70007047000010B590F83C20012A4FF0020294
:101E800033D080F83D200268D2F804E0D2F808C0D0
:101E90000C682EF07003234340F2FF74C4F2000478
:101EA000A24253600ADCB2F1804F13D040F20043EB
:101EB000C4F200039A420DD011E000BF42F6004385
:101EC000C4F201039A4205D040F60003C4F20003B5
:101ED0009A4204D149682CF0800319439160012192
:101EE000002280F83D1080F83C20104610BD000014
:101EF000002804BF0120704710B5044690F83D004B
:101F000028B9002084F83C00204600F067F8022041
:101F100084F83D00206840F2FF730268C4F20003B9
:101F200042F6004C9842C4F2010C15DCB0F1804F2F
:101F30001AD040F20041C4F20001884214D0984205
:101F400018DCB0F1804F1DD040F20041C4F2000116
:101F5000884217D01AE000BF604505D040F6000166
:101F6000C4F200018842EAD1A16822F070020A435B
:101F70009842E6DD604505D040F60001C4F200015C
:101F8000884203D1216922F440720A43A36922F0F6
:101F90008001D4F804E0E268194360450160C26240
:101FA000C0F828E002D16169CCF83010012141610C
:101FB000002084F8461084F83E1084F83F1084F81E
:101FC000401084F8411084F8421084F8431084F8DB
:101FD000441084F8451084F83D1010BD10B584B04D
:101FE000006840F20041C4F20001884220D040F66F
:101FF0000001C4F2000188422AD042F60041C4F236
:10200000010188421CBF04B010BD41F21C00C4F2A3
:10201000020050F8041C1B2441F4006140F8041C29
:1020200050F8040C00F40060039003981EE000BF19
:1020300041F21C00C4F2020001681D2441F00201BB
:102040000160006800F00200029002980EE000BFFC
:1020500041F21C00C4F2020001681E2441F0040198
:102060000160006800F00400019001982046002102
:102070000022FFF741FB204604B0BDE81040FFF707
:1020800027BB000090F83D1001291CBF01207047BC
:10209000022180F83D10006840F2FF71C4F2000197
:1020A000884209DCB0F1804F12D040F20041C4F206
:1020B000000188420CD012E042F60041C4F2010156
:1020C000884205D040F60001C4F20001884206D1E2
:1020D000816801F00701062904BF002070470168EC
:1020E00041F00101016000207047000090F83D10B0
:1020F00001291CBF01207047022180F83D100068B3
:1021000040F2FF72C168C4F20002904241F0010146
:10211000C16009DCB0F1804F12D040F20041C4F23E
:10212000000188420CD012E042F60041C4F20101E5
:10213000884205D040F60001C4F20001884206D171
:10214000816801F00701062904BF0020704701687B
:1021500041F00101016000207047000080B590F857
:102160003C20012A4FF0020200F0BF8080F83D20A1
:10217000D0F800C04FF67772DCF8083023EA02028C
:10218000CCF808200B683F2B1CDD5F2B20DD602B7B
:1021900050D0B3F5005F6DD0702B40F0A080D1E936
:1021A00001E3C968DCF8082043EA0E0322F47F4209
:1021B00043EA01211143CCF80810DCF8081041F083
:1021C00077018AE01F2B29DC63B3102B2AD086E02D
:1021D000402B63D0502B40F08280D1F804E0C968D6
:1021E000DCF82030DCF8202022F00102CCF820209E
:1021F000DCF8182022F0F00242EA011123F00A0272
:1022000042EA0E02CCF81810CCF82020DCF80810B6
:1022100041F0570121F020015FE000BF202B01D0E9
:10222000302B5CD1DCF8081021F07001194341F02B
:10223000070152E0D1F804E0C968DCF8203023F04F
:102240001003CCF82030DCF81830DCF8202023F420
:10225000704322F0A00243EA013142EA0E12CCF8A8
:102260001810CCF82020DCF8081041F0670121F0AC
:10227000100132E0D1E901E3C968DCF8082043EA43
:102280000E0322F47F4243EA01211143CCF80810E7
:10229000DCF8081041F480411FE000BFD1F804E0F1
:1022A000C968DCF82030DCF8202022F00102CCF8EC
:1022B0002020DCF8182022F0F00242EA011123F07D
:1022C0000A0242EA0E02CCF81810CCF82020DCF802
:1022D000081041F0470121F03001CCF8081001212D
:1022E000002280F83D1080F83C20104680BD0000A0
:1022F0007047000010B5016804460869800744BFB4
:10230000C8685FEA807039D40869400744BFC8686C
:102310005FEA40703ED40869000744BFC8685FEABE
:10232000007045D40869C00644BFC8685FEAC06051
:102330004AD40869C0071CBFC8685FEAC07051D1A1
:102340000869000644BFC8685FEA006052D40869A3
:10235000400644BFC8685FEA406053D408698006FD
:1023600046BFC8685FEA806010BD6FF0200220465B
:102370000A61BDE81040FFF77BBD00BF6FF00200AF
:102380000861012020778869800743D02046FFF745
:10239000AFFF45E06FF004000861022020778869F4
:1023A00010F4407F40D02046FFF7A2FF42E000BF7C
:1023B0006FF00800086104202077C86980073DD0CD
:1023C0002046FFF795FF3FE06FF0100008610820FE
:1023D0002077C86910F4407F3AD02046FFF788FF85
:1023E0003CE000BF6FF001000861204600F04CFAAD
:1023F0002168A5E76FF0800008612046FFF736FDF1
:102400002168A4E76FF040000861204600F080FAE0
:102410002168A3E7204600F04DF8204600F0C2F9FD
:102420002168002020776FE7204600F043F820461F
:1024300000F0B8F92168002020776CE7204600F012
:1024400039F8204600F0AEF921680020207769E7CE
:10245000204600F02FF8204600F0A4F92168002063
:10246000207766E780B586B040F600010068C4F2C8
:10247000000100228842049202D006B080BD00BF55
:1024800041F21800C4F20200026842F00802026041
:10249000006800F00800019001984FF470700290FD
:1024A00002200390059001F5823002A9FEF780FF1B
:1024B00006B080BD704700002DE9F04390F83C3035
:1024C000012B04BF0220BDE8F0834FEAB202032AC9
:1024D00000F2E980DFE802F0023A78B4036842F6DD
:1024E00000461A6AC4F2010622F001021A621D6A4D
:1024F0001A465C6852F818CFB3428E68D1F800E0F3
:1025000025F0020545EA06050CD1CE68D1E905782B
:1025100024F4407425F00C0526F004063C433543B2
:1025200044EA08042CF0730747EA0E075C609F61D9
:102530004F6809695F631D629F6947F008079F61E3
:102540009F6927F004079F61AAE000BF036842F675
:1025500000461A6AC4F2010622F010021A621D6ACD
:102560001A46D3F804C052F8184FB3428E68D1F817
:1025700000E025F0200545EA061510D1CE68D1E926
:10258000058725F0C0096FF0400505EA06152CF413
:10259000406647EA080745EA090546EA870C24F43D
:1025A000E64444EA0E27C3F804C09F614F680969F6
:1025B0009F631D629F6947F400679F619F6927F4CD
:1025C00080679F616BE000BF036842F600461A6AAD
:1025D000C4F2010622F480721A621D6A1A46D3F808
:1025E00004C052F81CEFB3428E680C6825F40075E5
:1025F00045EA062511D1CE68D1E9058725F4406961
:10260000360240F2FF4526EA05052CF4405647EA1B
:10261000080745EA090546EA071C2EF07307274319
:10262000C3F804C0DF614F680969DF631D62DF69B9
:1026300047F00807DF61DF6927F00407DF612FE05B
:10264000036842F600471A6AC4F2010722F4805276
:102650001A621A46D3F820C05D6852F81C4FD1F8B0
:1026600000E08E68BB4204D14F6925F4804545EAFD
:1026700087152CF4005747EA063724F4E64646EA65
:102680000E265D60DE614E6809691E641F62DF69A7
:1026900047F40067DF61DF6927F48067DF610902C3
:1026A000136819431160002180F83C100846BDE80A
:1026B000F0830000002804BF0120704710B50446D5
:1026C00090F83D0028B9002084F83C00204600F036
:1026D00067F8022084F83D00206840F2FF7302682A
:1026E000C4F2000342F6004C9842C4F2010C15DC1F
:1026F000B0F1804F1AD040F20041C4F2000188428C
:1027000014D0984218DCB0F1804F1DD040F2004147
:10271000C4F20001884217D01AE000BF604505D01E
:1027200040F60001C4F200018842EAD1A16822F01B
:1027300070020A439842E6DD604505D040F600018C
:10274000C4F20001884203D1216922F440720A4395
:10275000A36922F08001D4F804E0E26819436045DF
:102760000160C262C0F828E002D16169CCF8301083
:1027700001214161002084F8461084F83E1084F85D
:102780003F1084F8401084F8411084F8421084F817
:10279000431084F8441084F8451084F83D1010BDAF
:1027A000704700007047000041B1082910D004298B
:1027B00014BF00F1410200F13F020BE090F83E200F
:1027C000012A1CBF01207047022280F83E2013E03E
:1027D00000F140021278012A1CBF0120704702223A
:1027E000082907D0042914BF80F8412080F83F2031
:1027F00002E000BF80F84020006801F01F010122C4
:10280000036A8A4023EA02010162036A42F64441F4
:10281000C4F201011A43A1F14403984202620FD0AD
:1028200040F2FF71C4F20001884213DCB0F1804F26
:102830001CD040F20041C4F20001884216D01CE0D6
:102840000A6842F400420A6040F2FF71C4F20001DB
:102850008842EBDD42F60041C4F20101884205D016
:1028600040F60001C4F20001884206D1816801F0FF
:102870000701062904BF00207047016841F00101EB
:10288000016000207047000070B540F29C11C2F258
:10289000000100680968884218BF70BD40F2280630
:1028A000C2F200063089013081B20A2930812ED16E
:1028B000F068B6F9641000F06DFF3269B6F9661081
:1028C000B064104600F0D0FF0446B06CF464FDF72D
:1028D00089FD05462046FDF785FD40F2E4116B4277
:1028E000C2F20001B5F1FF3FC8BF002309684FF0F5
:1028F0000002D8BF15464B630028CD6347BF8A63EB
:10290000404288630020086400207066308170BDFA
:10291000704700007047000070470000B0B582B0FB
:10292000026805461068D368546900F02F01202919
:1029300003F0200106D129B1284602B0BDE8B0401D
:1029400000F02ABB5FEA007C1EBF04F0010E03F416
:10295000907414EB0E0453D1296B012905D110F0AA
:10296000100118BF13F0100136D1010622D513F063
:1029700080011FD095F83D0021283FD1A868B0F50F
:10298000805F03D12869002800F0F880286A411C84
:10299000296200785060E88C01380104E8842DD168
:1029A000D06820F08000D060D06840F04000D06057
:1029B00002B0B0BD400621D513F040001ED0D06853
:1029C000202120F04000D060284685F83D1002B05C
:1029D000BDE8B04000F0B6BA002001901068019048
:1029E0005068019001985069400611D4A88DE98D76
:1029F000EB8D002B18BF884240F0A68002B0B0BD1E
:102A0000C40718BF13F480732CD1430730D436E0C9
:102A1000A86B01684B689CB2002CEFD0A98D8C424A
:102A2000ECD2EB858369202B17D0D16821F480711B
:102A3000D160516921F001015161516921F04001DA
:102A40005161202185F83E1000212963D16821F0D1
:102A50001001D160FEF772FAA98DE88D081A81B2D3
:102A6000284685E02B6C43F001032B64430706D511
:102A7000BEF1000F03D02B6C43F002032B648307DD
:102A800006D5BEF1000F03D02B6C43F004032B647A
:102A9000BCF1000F09D541EA0E03B3FA83F35B09D9
:102AA00003D12B6C43F008032B642B6C002BA5D0B7
:102AB00010F0200018BF002903D0284600F06CFA5F
:102AC0002A685069296C00F0400001F008014018A4
:102AD0002CD0D06820F49070D060506920F00100B4
:102AE0005061286B012803D1D06820F01000D0601D
:102AF000202085F83E0000202863506940061DD53F
:102B0000506920F040005061A86BB8B142F68D7159
:102B1000C0F600014163FEF735FA00283FF46EAFBE
:102B2000A86B416B02B0BDE8B04008472846FFF7EC
:102B3000F3FE0020286402B0B0BD00BF284602B0FA
:102B4000BDE8B040FFF7E8BED368401A23F49073A5
:102B5000D360536981B223F001035361202385F8C8
:102B60003E3000232B63D368284623F01003D36044
:102B700002B0BDE8B040FFF7CDBE00BF286A30F814
:102B8000021B6FF35F215160286204E7002804BF35
:102B90000120704710B5044690F83D0028B9002088
:102BA00084F83C00204600F061F8242084F83D00C1
:102BB0002068D4E90212C36823F40053C360036998
:102BC00023F440531A430261D4E904231143C26839
:102BD000194341F20C639A431143C1604169A269F0
:102BE00021F44071114343F60002C4F20102904205
:102BF000416103D0FEF722FF02E000BFFEF732FF83
:102C00006268192148439100B0FBF1F048F21F516E
:102C1000C5F2EB11A0FB01235A094FF69C73C0F6D5
:102C2000FF7302FB0300322303EB0010A0FB010142
:102C3000F02303EA5113206803EB0212C1F343119E
:102C400011448160016921F490410161416921F0E1
:102C50002A014161C16841F40051C1600020202176
:102C6000206484F83D1084F83E1010BDF0B585B0A6
:102C7000006844F20041C4F2000188424FF00001B4
:102C8000CDE90311CDE9011122D043F60001C4F2D0
:102C90000101884253D141F21800C4F202000168D8
:102CA000252441F48041016001684FF4806701F4FC
:102CB000804100910099016841F0040101600068C1
:102CC00000F00400009000984FF4007019E000BF7D
:102CD00041F21800C4F202004168262441F4003198
:102CE00041604168082701F40031009100990168B2
:102CF00041F004010160006800F0040000900098B9
:102D000004200190022040F6000502900320C4F246
:102D1000010501AE049028463146FEF749FB00202C
:102D2000CDE90200284631460197FEF741FB2046D7
:102D300000210022FEF7E0FC2046FEF7C9FC05B0AA
:102D4000F0BD0000034690F83E0020280AD100297B
:102D50004FF0010018BF002A00D1704793F83C00E3
:102D6000012801D1022070470020186399622221B6
:102D70009A85DA85186483F83E10196883F83C0058
:102D8000CA6842F48072CA604A6942F001024A612C
:102D9000CA6842F02002CA60704700007047000015
:102DA0002DE9F041044690F83D0020280ED10D4653
:102DB00000294FF0010000F08E801646002A08BF5F
:102DC000BDE8F08194F83C00012803D10220BDE861
:102DD000F08100BF012084F83C0000202064212005
:102DE000984684F83D00FEF7FDFBA684E684A168C2
:102DF0000646B1F5805F03D12069002800F0A0806D
:102E00002F460025002084F83C00E08CE0B118F14A
:102E100001001BD0B8F1000F60D120680BE000BFAB
:102E200035F8021B00276FF35F214160E18C013907
:102E3000E184E18C51B3016809066DD5002FEFD014
:102E400017F8011BF1E700BF20681FE0206802E0CF
:102E50000168090609D40168090606D40168090653
:102E60005CBF01685FEA0161F2D51FB117F8011B71
:102E700005E000BF35F8021B00276FF35F214160BA
:102E8000E18C0139E184E18C0029E4D10168490633
:102E90001DD4B8F1000F3FD018F101010ED1016827
:102EA000490614D4016849065CBF01685FEA4161C4
:102EB0000DD401684906F2D509E000BFFEF792FB88
:102EC000811B2068414527D800684006F6D52020A0
:102ED00084F83D000020BDE8F08100BF206800BFFD
:102EE0000168090606D4FEF77DFB811B2068414579
:102EF000F6D911E017B117F8011B04E035F8021BF1
:102F000000276FF35F214160E18C0139E184E18C9E
:102F10000029E5D1BAE700BFC16821F4D071C160D2
:102F2000416921F001014161202084F83D0084F8CD
:102F30003E00002084F83C000320BDE8F08100BF83
:102F400000275FE770470000FEE70000FEE7000093
:102F50007047000070470000704700007047000095
:102F6000FEF746BB7047000040F25410C2F200006A
:102F7000FFF7C0B940F29C10C2F20000FFF7BAB9E7
:102F800040F2E410C2F20000FFF7B4B9406A002139
:102F9000C185C184FFF7C0BC81B090F83E102229E2
:102FA00021D183680246B3F5805F09D152F8281F0A
:102FB00052F8183C002B3FD003685B680AE000BF62
:102FC00052F8281F13B90369002BF5D003685B681A
:102FD00003F07F030B70116801311160C18D01395D
:102FE0000A04C18502D001B0704700BF0168CA68F9
:102FF00022F02002CA60CA6822F48072CA604A695C
:1030000022F001024A61202280F83E20026B012A50
:103010001AD100220263CB6823F01003CB600B6847
:10302000DB0605D500920A68009249680091009974
:10303000818D01B0FFF76EBC026852686FF35F22AA
:1030400021F8022B8162C9E701B0FFF7A7BE00009B
:103050002DE9F04740F29C00C2F2000000F130047C
:103060002046FFF75BFC40F22808C2F2000808F196
:10307000680120460A22FFF765FE98F8680041289B
:1030800002D1002123E000BF98F86910412901D145
:1030900001211CE098F86A10412901D1022116E0B3
:1030A00098F86B10412901D1032110E098F86C10B9
:1030B000412901D104210AE098F86D10412901D17C
:1030C000052104E098F86E1041291CD106214144E5
:1030D00091F8693091F86A20312B09D191F86B1081
:1030E00002EB820201EB4201A1F5047109E000BF8D
:1030F00091F86B1002EB82025242C1EB420101F5E2
:103100000471C8F80C10422802D1002123E000BF4E
:1031100098F86910422901D101211CE098F86A1041
:10312000422901D1022116E098F86B10422901D101
:10313000032110E098F86C10422901D104210AE023
:1031400098F86D10422901D1052104E098F86E101D
:1031500042291CD10621414491F8693091F86A2036
:10316000312B09D191F86B1002EB820201EB420185
:10317000A1F5047109E000BF91F86B1002EB820227
:103180005242C1EB420101F50471C8F8101040F63B
:10319000004A40F25416C4F2010A4F28C2F2000657
:1031A0003CD14FF0000944F24F6544F250670024CF
:1031B00003E000BF01341E2C2ED05046082101220E
:1031C000FEF70AFA3068C0F8249000BF416AC908C7
:1031D0007C290BD8416AC9087C2907D8416AC908EB
:1031E0007C2903D8416AB1F57A7FEFD35046082194
:1031F0000022FEF7F1F93068C0F82490416AA94234
:10320000D8D8416AA942D5D8416AA942D2D8416AE0
:10321000B942F3D3CEE700BF98F86800462818BF3C
:10322000BDE8F0874FF0000944F2672544F26827B3
:10323000002402E001341E2C2ED050460821012229
:10324000FEF7CAF93068C0F8249000BF416A090946
:103250007C290BD8416A09097C2907D8416A0909E8
:103260007C2903D8416AB1F5FA6FEFD350460821A3
:103270000022FEF7B1F93068C0F82490416AA942F3
:10328000D8D8416AA942D5D8416AA942D2D8416A60
:10329000B942F3D3CEE700BF40F29C0008F15801D9
:1032A000C2F200000422BDE8F047FDF7BBBD0000FC
:1032B000FEE7000080B582B0019040F29C00C2F2AF
:1032C0000000303001A901226423FFF769FD0020CE
:1032D00002B080BD2DE9F041FDF7B0FA002853D0CF
:1032E000FDF74AFA40F22807C2F200073870FDF7EE
:1032F00043FA7870FDF740FAB870FDF73DFAF870C0
:10330000FDF73AFA3D787C780146B878FE78621984
:10331000024432448A42397118BFBDE8F081FDF79A
:103320004FF880463046FDF750F80026C4F22406D8
:1033300000223346FCF7BEFFFDF76DF8014640461C
:10334000FCF7F0FE0021C4F210117861FCF742FF97
:103350000021C4F2A001FCF76FFF4FF08441FCF79D
:10336000E1FEB8612846FDF72BF805462046FDF73B
:103370002CF800223346FCF79DFFFDF74CF8014680
:103380002846FCF7CFFEF861BDE8F08196B040F624
:10339000004BC4F2010BFEF739F94FF00008102082
:1033A000CDE9118811904FF4E01002244FF001098B
:1033B00015900CA8CDE90F88CDE90D88CDF81480C3
:1033C000CDE903880C94CDF84090CDE91348FEF781
:1033D0005DFB0F2006A981E8110106A80121CDE9B6
:1033E0000988FEF74BFA4FF48040049002A802943B
:1033F000FEF7BEF941F21806CDF83C80C4F2020691
:103400003068382140F0040030603068002200F05D
:103410000400069006983068382740F008003060B5
:10342000306800F00800069006985846FEF7D4F879
:1034300040F606400C900020C1F211000CADCDE921
:103440000D0958462946FDF7B3FF58462946CDE9F0
:103450000C79CDE90E44FDF7ABFF072000210022D7
:10346000FEF74AF90720FEF733F908200021002271
:10347000FEF742F90820FEF72BF928200021002250
:10348000FEF73AF92820FEF723F956F8040C00213C
:1034900040F0010046F8040C56F8040C002200F03D
:1034A00001000C900C980B20FEF726F90B20FEF77C
:1034B0000FF940F29C060BF5C050C2F200064FF423
:1034C00080714FF46022C6E900080427304686F870
:1034D0000C8086F81480F261B1603761FDF798FBCB
:1034E0000CAD4FF0030A30462946CDE90C79CDF8F2
:1034F00038A0FDF741FA4FF0050930462946CDE9DD
:103500000C94FDF739FA0620CDE90C0A304629461D
:10351000FDF732FA0720CDE90C0730462946FDF7C2
:103520002BFA40F254150BF50050C2F2000523218E
:103530004FF6FE7285E803012846CDF83C80CDE9C0
:103540000D88CDE90688C5E90328C5E90588FEF799
:10355000CFFC4FF480570CA928460C97FEF7FEFDD0
:1035600006A92846FEF786FC40F29C14ABF5843091
:10357000C2F2000440F60F61632284E80301204692
:10358000CDF83C80CDE90D88CDE90688C4E9032853
:10359000C4F81880FEF7ACFC0CA920460C97FEF787
:1035A000DDFD06A92046FEF765FC40F2E41AABF506
:1035B0008230C2F2000A40F2E731CAE900095046FF
:1035C000CDF82480CDE90788CDE90288CDE91188BE
:1035D000CDE90F88CAE90281CAF81080CAF81880BC
:1035E000FEF786FC06A950460697FEF7B7FD504643
:1035F000FFF760F802A95046FEF73CFC60200DF191
:103600003009CDE90C08504649460022CDF83880F3
:10361000CDF84080FEF750FF504649460422FEF7A1
:103620004BFF504649460822FEF746FF50464946A2
:103630000C220C27FEF740FF5046FEF713FFABF5B8
:10364000484046F8300F4FF4E130C6E901083046F3
:10365000C6E90388C6E90578C6F81C80FFF796FA24
:103660002846FEF70FFD2046FEF740FD40F22809F0
:10367000C2F2000909F1680130460A22FFF762FB35
:1036800050460021FFF790F850460421FFF78CF8D0
:1036900050460821FFF788F850460C21FFF784F8C0
:1036A00044F2672644F26824002702E001371E2F07
:1036B0002ED0584608210122FDF78EFF2868C0F859
:1036C000248000BF416A09097C290BD8416A090995
:1036D0007C2907D8416A09097C2903D8416AB1F5D8
:1036E000FA6FEFD3584608210022FDF775FF2868CE
:1036F000C0F82480416AB142D8D8416AB142D5D8D5
:10370000416AB142D2D8416AA142F3D3CEE700BFA9
:1037100040F29C0009F15801C2F200000422FDF7BA
:1037200081FBB9F8060043F6D23843F6310AC0F6F9
:10373000000800BF0130A9F80600FFF7CBFDB9F97A
:1037400006000B28F6DBD9F81400B9F96250B9F974
:103750006060D9F81C70FCF745FE04463846FCF75B
:1037600041FEB9F95C10009001FB0AF2C1EB124175
:103770008AB209B2491101EBD23101F16407404626
:10378000294632462346019700F0D8F80020A9F8D0
:103790000600CFE72DE9F04F83B040F228098346B9
:1037A000401AC2F2000940F204048A46C9F8200017
:1037B000C2F20004FCF7FBFDD9E90951064601916C
:1037C000D9F82C10A0680291276824692946FCF7D3
:1037D00001FD804638463146FCF7FCFC4146FCF7CB
:1037E000A1FC019907462046FCF7F4FC3946FCF79A
:1037F00099FC04460298FCF7DAFD01462046FCF7E6
:1038000091FCFCF7EFFD40F2E734A042B8BF04465C
:103810004FF61940CFF6FF708442D8BF0446D34517
:10382000C9F82C4006D00021C4F2C8212846FCF774
:10383000B0FD48B928463146FCF774FCBBEB0A01E1
:1038400018BF0146C9F82410D9F830103046FCF7EB
:10385000BBFCC9F828002046C9F83060FCF7A7FD7A
:1038600003B0BDE8F08F00002DE9F04F83B040F2C7
:1038700028098346401AC2F2000940F204048A462D
:10388000C9F83400C2F20004FCF791FDD9E90E51E9
:1038900006460191D9F84010E068029167686469B2
:1038A0002946FCF797FC804638463146FCF792FCE7
:1038B0004146FCF737FC019907462046FCF78AFC95
:1038C0003946FCF72FFC04460298FCF770FD0146D0
:1038D0002046FCF727FCFCF785FD40F2E734A042C8
:1038E000B8BF04464FF61940CFF6FF708442D8BFE8
:1038F0000446D345C9F8404006D00021C4F2C8218F
:103900002846FCF746FD48B928463146FCF70AFC34
:10391000BBEB0A0118BF0146C9F83810D9F84410AA
:103920003046FCF751FCC9F83C002046C9F8446019
:10393000FCF73DFD03B0BDE8F08F00000FB4054B70
:1039400010B503A9044A029800F018F810BC5DF8FD
:1039500014FB0000B53200080000002002E008C897
:10396000121F08C1002AFAD170477047002001E0F9
:1039700001C1121F002AFBD1704700002DE9FF4F43
:103980008BB09A460F460446002606E025280BD049
:1039900052460D999047641C761C20780028F5D17A
:1039A0000FB03046BDE8F08F0025A94601227D49C1
:1039B00000E0054314F8013F203B02FA03F00842FF
:1039C000F7D120782E2817D114F8010F45F00405FF
:1039D0002A280ED06FF02F022078A0F1300109299B
:1039E0000AD809EB890102EB410100EB0109641CD3
:1039F000F2E757F8049B641C20786C280DD004DC97
:103A00004C2812D06A2811D104E074280DD07A28ED
:103A10000CD10AE045F4001507E0617845F4801503
:103A2000814202D1641C05F58015641C2078692848
:103A30003ED006DC0028B3D063280BD0642804D124
:103A400036E0732810D075285CD052460D99904707
:103A5000761CA5E017F8040B8DF8000000208DF807
:103A60000100E846012003E057F8048B4FF0FF30D7
:103A700069074FF0000501D40AE06D1C4D450DDAD1
:103A80008542FADB18F805100029F6D106E06D1C16
:103A90008542FCDB18F805100029F8D12E4404E01B
:103AA00018F8010B52460D9990476D1EF8D277E039
:103AB00000200A90C5F302504FF00A0B02280CD0E8
:103AC00001CFC117021E71F100020CDA0023D0EB06
:103AD000030063EB01012D2208E0FF1D27F007071B
:103AE000F7E80201EEE72A0504D52B228DF8242001
:103AF000012203E0EA070FD02022F7E70DF12008AA
:103B0000089218E000200A90C5F302504FF00A0B0B
:103B1000022803D001CF00210022EFE7FF1D27F08C
:103B20000707F7E80201F7E75A460A9BFCF78FFC04
:103B3000303208F8012D50EA0102F5D1ADEB080052
:103B400000F1200B680701D44FF00109D94502DDCF
:103B5000A9EB0B0000E000208146002506E009A843
:103B60005246405D0D9990476D1C761C0898854221
:103B7000F5DB04E0302052460D999047761CB9F1F0
:103B80000001A9F10109F5DC05E018F8010B524626
:103B90000D999047761CBBF10001ABF1010BF4DCF1
:103BA000641CFAE609280100010200000000000080
:103BB00000000102030406070809000000000102DA
:103BC000030402030405060708090A0B0C0D0E0F77
:103BD0001010256C6420256C6420256C6420256CF5
:103BE0006420256C642020656E640000103C000891
:103BF00000000020280000005C390008383C000864
:103C000028000020080600006C39000800000000B1
:103C10000000000000002841000028416F12833A94
:103C20006F12833A00002040000020400100000095
:083C3000100000000024F40064
:04000005080000ED02
:00000001FF
